{
  "abi": [
    {
      "inputs": [
        {
          "internalType": "uint256[24]",
          "name": "_proof",
          "type": "uint256[24]"
        },
        {
          "internalType": "uint256[1]",
          "name": "_pubSignals",
          "type": "uint256[1]"
        }
      ],
      "name": "verifyProof",
      "outputs": [
        {
          "internalType": "bool",
          "name": "",
          "type": "bool"
        }
      ],
      "stateMutability": "view",
      "type": "function"
    }
  ],
  "bytecode": {
    "object": "0x608060405234801561001057600080fd5b5061145c806100206000396000f3fe608060405234801561001057600080fd5b506004361061002b5760003560e01c8063ff7240a714610030575b600080fd5b61004361003e3660046113a1565b610057565b604051901515815260200160405180910390f35b6000611332565b600080600184846000805b821561008b575092938183058581029091039350909181830290039081610069565b505050600181111561009c57600080fd5b505060008112156100aa5783015b9392505050565b60405181602084028301815160208301925060005b828410156100f7578185526000805160206114078339815191528451830991506020850194506020840193506100c6565b61010f6000805160206114078339815191528361005e565b91506020850394506020840393508592505b828411156101665760008051602061140783398151915285518309905060008051602061140783398151915284518309818552601f1995860195909401939150610121565b5090915250505050565b600080516020611407833981519152811061018f576000805260206000f35b50565b61019e61024435610170565b6101aa61026435610170565b6101b661028435610170565b6101c26102a435610170565b6101ce6102c435610170565b6101da6102e435610170565b565b604080517f1e9a855a157cefde80967ab5b4b44937afc838cbdb6c50b3ae2db070868a48b581527f2c2d3e4cfbf70b6bf2166f750e5772b7c6648372ea8c5c28541acfab12fba03260208083019182527f290137fa279e7b8d6b2769d706904e39835b0560b1eeedf10870d825fae6d58b8385019081527ed672aaf81852cb88f594fa852b17192f4294fe7514365e90b9fcd18d668515606085019081527f0c3861ed8773b930fa873d49728faafdeca893ef24a99a1ddb2445a6a79a5bcd6080808701919091527f14f2ecb4933affbd442f9d4ba7846fd9d5eb09d5df5599fcd3c4c207bfc3dd9660a08701527f1bc48f8f0bea3009b9051ad4ac8c5fab88ab05db101e53ab88dd4f7556912f7060c08701527f282cfa2b0b4b8b108ffd1c908c21c35ff51e548b553ccf29c9a88d8ff9bec19460e08701527f11edeb04570925f956bc56a5d671e355f2f14273836259842c008bcd3edb77946101008701527f061954a57cb178233068640e0ee3382ae1c04596d0e987941c3fc389c5a81d8b6101208701527f090a1d974713725befeccb5544333e16522f3485dd2529a69ade76c1cebf45526101408701527f1aa70c6b822a4fa5daebcb3b4730229e5cef988fe9a58dc66f02f0bcb6bb24a66101608701527f27fbcf2f0369c042069d1d5589296a0108d41b40fe8ce151bcf51cc0bba83c856101808701527f1877ee4fab2d686be630124533919eead73fccc4e40e74b9b2738b688ab209a06101a08701527f18c03cd7bf0cab72668f60490c6443affac1e62bb74c4aadb73ba0560bdee4036101c08701527f1f7a9303427adb10c36305f52351584eca897b41f71555c9cc297fdda1f63c456101e087015288356102008701526004356102208701526024356102408701526044356102608701526064356102808701526084356102a087015260a4356102c08701526102e086206000805160206114078339815191529081900689860181815295909520819006978901978852848752965190945260c43590915260e435905290822083900680855290929091908280096102c08501528181526101043560208201526020610104013560408201526101443560608201526020610144013560808201526101843560a08201526020610184013560c082015260008051602061140783398151915260e082200691508160608501528181526102443560208201526102643560408201526102843560608201526102a43560808201526102c43560a08201526102e43560c082015260008051602061140783398151915260e08220068060c086015260008051602061140783398151915283850960a086015260008051602061140783398151915283840992506000805160206114078339815191528384099250600080516020611407833981519152838409925060008051602061140783398151915283840992506000805160206114078339815191528384099250826080860152600080516020611407833981519152806001850301069250826102e08601528261030086015260008051602061140783398151915281820992508260e0860152600080516020611407833981519152818409925082610100860152600080516020611407833981519152818409925082610120860152600080516020611407833981519152818409610140860152506101c43581526101e435602082015261020435604082015261022435606082015260809020600080516020611407833981519152900661016090930192909252505050565b600160008051602061140783398151915280600080516020611407833981519152836060860151030106602009610320830152610729600261030084016100b1565b6102e0820151600191506000805160206114078339815191528161032085015109610320840152505050565b60006000805160206114078339815191528060008051602061140783398151915260008601356103208601510983030106905080610180830152505050565b6101808101516000805160206114078339815191526102c083015161032084015109600080516020611407833981519152806102a4356020860151096102443508600080516020611407833981519152604085015182089050600080516020611407833981519152806102c4356020870151096102643508600080516020611407833981519152604086015182089050600080516020611407833981519152604086015161028435086000805160206114078339815191528160008051602061140783398151915284860909925050506000805160206114078339815191526102e43582099050600080516020611407833981519152600085015182099050600080516020611407833981519152808360008051602061140783398151915203068408925060008051602061140783398151915280826000805160206114078339815191520306840892505050806101a08301525050565b6040518151815260208201516020820152825160408201526020830151606082015260408260808360066107d05a03fa90508061092d576000805260206000f35b505050565b50505050565b600060405183815284602082015285604082015260408160608360076107d05a03fa91508161096b576000805260206000f35b825160408201526020830151606082015260408360808360066107d05a03fa9150508061099c576000805260206000f35b5050505050565b600060405183815284602082015285604082015260408360608360076107d05a03fa9150508061099c576000805260206000f35b61092d8360208401518451846109a3565b6101c0810160408201516040516101008101604052610a4c7f061954a57cb178233068640e0ee3382ae1c04596d0e987941c3fc389c5a81d8b7f11edeb04570925f956bc56a5d671e355f2f14273836259842c008bcd3edb77948590815260200152565b610aaf6000805160206114078339815191526102643561024435097f2c2d3e4cfbf70b6bf2166f750e5772b7c6648372ea8c5c28541acfab12fba0327f1e9a855a157cefde80967ab5b4b44937afc838cbdb6c50b3ae2db070868a48b586610938565b610afd610244357ed672aaf81852cb88f594fa852b17192f4294fe7514365e90b9fcd18d6685157f290137fa279e7b8d6b2769d706904e39835b0560b1eeedf10870d825fae6d58b86610938565b610b4c610264357f14f2ecb4933affbd442f9d4ba7846fd9d5eb09d5df5599fcd3c4c207bfc3dd967f0c3861ed8773b930fa873d49728faafdeca893ef24a99a1ddb2445a6a79a5bcd86610938565b610b9b610284357f282cfa2b0b4b8b108ffd1c908c21c35ff51e548b553ccf29c9a88d8ff9bec1947f1bc48f8f0bea3009b9051ad4ac8c5fab88ab05db101e53ab88dd4f7556912f7086610938565b60a08401516000805160206114078339815191528360008051602061140783398151915283610244350808600080516020611407833981519152846000805160206114078339815191528060028609610264350808600080516020611407833981519152856000805160206114078339815191528060038709610284350808925060008051602061140783398151915260008801516000805160206114078339815191528560008051602061140783398151915285870909096000805160206114078339815191526102c08901516103208a01510960c43560c087015260e43560e0870152610cb56000805160206114078339815191526101608b01516000805160206114078339815191528486080860c08801886109d7565b505060008051602061140783398151915285600080516020611407833981519152806102a43560208c015109610244350808915060008051602061140783398151915285600080516020611407833981519152806102c43560208c01510961026435080890506000805160206114078339815191526102e43560008051602061140783398151915260208a015160008b015109099250610dbc60008051602061140783398151915284600080516020611407833981519152848609097f1f7a9303427adb10c36305f52351584eca897b41f71555c9cc297fdda1f63c457f18c03cd7bf0cab72668f60490c6443affac1e62bb74c4aadb73ba0560bdee403604088016109a3565b5050506101043560808201526101243560a0820152610ded6080850151602061014401356101443560808501610938565b60808401516000805160206114078339815191529080099150610e1b826101a4356101843560808501610938565b610e376102e085015160a08301516080840151608085016109a3565b6000805160206113e783398151915260206040830101516000805160206113e7833981519152030660206040830101526000805160206113e783398151915260a08201516000805160206113e7833981519152030660a0820152610e9b81846108ec565b610ea860408201846108ec565b61093260808201846108ec565b6101c081015161020082019081526101e082015161022083015260c0820151610ee49060243560043584610938565b60e0820151610ef99060643560443584610938565b610100820151610f0f9060a43560843584610938565b610f606101208301517f1aa70c6b822a4fa5daebcb3b4730229e5cef988fe9a58dc66f02f0bcb6bb24a67f090a1d974713725befeccb5544333e16522f3485dd2529a69ade76c1cebf455284610938565b610fb16101408301517f1877ee4fab2d686be630124533919eead73fccc4e40e74b9b2738b688ab209a07f27fbcf2f0369c042069d1d5589296a0108d41b40fe8ce151bcf51cc0bba83c8584610938565b5050565b6000805160206114078339815191526101a082015160008051602061140783398151915203066000805160206114078339815191528060c08401516102443509820890506000805160206114078339815191528060e084015161026435098208905060008051602061140783398151915280610100840151610284350982089050600080516020611407833981519152806101208401516102a4350982089050600080516020611407833981519152806101408401516102c4350982089050600080516020611407833981519152806101608401516102e4350982089050610fb1816002600161024086016109a3565b6000604051610240810160405261018081016101c0820161020083016110d76101c48481358152602091820135910152565b6102043582526102243560208301526110f661016087015183866109d7565b61110083856108ec565b6000805160206113e783398151915260208501516000805160206113e7833981519152030660208501527f26186a2d65ee4d2f9c9a5b91f86597d35f192cd120caf7e935d8443d1938e23d60408501527f30441fd1b5d3370482c42152a8899027716989a6996c2535bc9f7fee8aaef79e60608501527f1970ea81dd6992adfbc571effb03503adbbb6a857f578403c6c40e22d65b3c0260808501527f054793348f12c0cf5622c340573cb277586319de359ab9389778f689786b1e4860a08501526111d460608701518460c087016109d7565b60008051602061140783398151915260608701516101608801510992506000805160206114078339815191527f09c532c6306b93d29678200d47c0b2a99c18d51b838eeb1d3eed4c533bb512d0840992506112308383836109d7565b61123d8160c086016108ec565b505050611251610200840160c083016108ec565b610260830180516000805160206113e783398151915290810306905261127e610240840160c083016108ec565b7f198e9393920d483a7260bfb731fb5d25f1aa493335a9e71297e485b7aef312c26101008201527f1800deef121f1e76426a00665e5c4479674322d4f75edadd46debd5cd992f6ed6101208201527f090689d0585ff075ec9e99ad690c3395bc4b313370b38ef355acdadcd122975b6101408201527f12c85ea5db8c6deb4aab71808dcb408fe3d1e7690c43d37b4ce6cc0166fa7daa6101608201526020816101808360086107d05a03fa90511692915050565b6040516103408101604052611345610192565b61134f83826101dc565b611358816106e7565b6113628382610755565b61136b81610794565b611374816109e8565b61137d81610eb5565b61138681610fb5565b61138f816110a5565b61034082036040528060005260206000f35b6000806103208084860312156113b657600080fd5b6103008401858111156113c857600080fd5b8493508582860111156113da57600080fd5b8092505050925092905056fe30644e72e131a029b85045b68181585d97816a916871ca8d3c208c16d87cfd4730644e72e131a029b85045b68181585d2833e84879b9709143e1f593f0000001a264697066735822122058f5062cbf44d88b64c369cefd2fcfcd5507b9b54cf37d2aa7b9d28531e26d8164736f6c63430008150033",
    "linkReferences": {}
  },
  "methodIdentifiers": {
    "verifyProof(uint256[24],uint256[1])": "ff7240a7"
  },
  "id": 0
}